:020000040800F2
:10000000905B0024E1020008E1AD00088987000848
:10001000D9AD0008B908000809C2000800000000B6
:10002000000000000000000000000000F1B2000825
:10003000D91200080000000041AF000861B40008B8
:10004000FB020008FB020008FB020008FB0200089C
:10005000FB020008FB020008FB020008FB0200088C
:10006000FB020008FB020008FB020008FB0200087C
:10007000890D0008990D0008A90D0008FB02000871
:10008000FB020008FB020008FB020008091300083D
:10009000291300081913000839130008FB0200088F
:1000A000FB020008FB020008FB020008FB0200083C
:1000B000FB020008FB020008FB020008FB0200082C
:1000C000FB020008FB020008FB020008FB0200081C
:1000D000F9B10008FB020008FB020008FB0200085F
:1000E000E1120008FB02000800000000FB0200080B
:1000F000FB020008FB020008FB020008FB020008EC
:10010000FB020008FB020008FB020008FB020008DB
:10011000FB02000891B70008FB020008F9B50008CF
:10012000FB020008FB020008FB020008FB020008BB
:10013000FB020008FB020008FB020008FB020008AB
:1001400000000000000000000000000000000000AF
:10015000FB020008FB020008FB020008FB0200088B
:10016000FB020008FB020008FB020008FB0200087B
:10017000FB020008FB020008FB0200080000000070
:10018000FB020008FB020008FB020008FB0200085B
:10019000FB020008FB020008FB020008FB0200084B
:1001A000FB020008FB020008FB0200080000000040
:1001B000FB020008FB020008FB020008FB0200082B
:1001C000FB020008FB020008000000000000000025
:1001D0000000000000000000FB020008000000001A
:1001E000000000000000000000000000000000000F
:1001F0000000000000000000FB020008FB020008F5
:10020000FB020008FB02000800000000FB020008DF
:10021000FB020008FB020008FB020008FB020008CA
:10022000FB02000800000000FB02000800000000C4
:10023000FB020008FB02000800000000FB020008AF
:10024000FB020008FB020008FB020008FB0200089A
:10025000FB020008FB020008FB020008FB0200088A
:10026000FB020008FB020008FB020008FB0200087A
:10027000FB020008FB020008FB020008000000006F
:10028000FB020008FB020008FB020008FB0200085A
:1002900000000000FB020008FB0200080000000054
:1002A00000000000FB020008FB020008FB0200083F
:1002B000FB020008FB020008FB020008FB0200082A
:1002C000FB020008FB020008FB020008DFF80CD06C
:1002D00000F08CF80048004731DE0008905B0024F5
:1002E0000648804706480047FEE7FEE7FEE7FEE7D0
:1002F000FEE7FEE7FEE7FEE7FEE7FEE749B500089A
:10030000CD0200082DE9F05F0546002092469B468D
:1003100088460646814640241BE02846414647461B
:10032000224600F053F853465A46C01A914110D362
:1003300011461846224600F03AF82D1A67EB0108DC
:100340004F4622460120002100F031F817EB00094A
:100350004E41201EA4F10104DFDC484631462A4606
:100360004346BDE8F09F40EA01039B0703D009E044
:1003700008C9121F08C0042AFAD203E011F8013B91
:1003800000F8013B521EF9D27047D2B201E000F8EA
:10039000012B491EFBD270470022F6E710B5134629
:1003A0000A4604461946FFF7F0FF204610BD202AF2
:1003B00004DB203A00FA02F1002070479140C2F1BC
:1003C000200320FA03F3194390407047202A04DBEE
:1003D000203A21FA02F00021704721FA02F3D040BE
:1003E000C2F1200291400843194670471CB50948E4
:1003F0000090094801900546009C06E0E06840F046
:10040000010394E8070098471034AC42F6D3FFF795
:1004100061FF0000B41B0108D41B010800000000AC
:1004200010B50446006842F2001140F48070C4F236
:100430000201884218D142F20830C4F2020000687A
:1004400010F4403F18D005F00BFF6168B1F5803F14
:1004500005D0B1F5403F2BD0B1F5003F29D1090CB3
:10046000B0FBF1F025E000BF46F20830C5F602000F
:10047000006810F4403FE6D14FF40020002104F062
:100480006BFE6168A1F580224FEAB2420A2A10D8B9
:10049000DFE802F0060606060606403E443C42003F
:1004A0006FF0010202EA5141B0FBF1F001E000BF40
:1004B00080084BF62141C0F2BE01884206D8206870
:1004C000816821F44071816010BD00BF47F6410191
:1004D000C0F27D11884207D820680122816862F34A
:1004E0000921816010BD00BF21684FF28102C0F276
:1004F000FA229042886805D8022262F309208860B7
:1005000010BD00BF40F44070886010BDC009D0E746
:100510004009CEE70009CCE7000ACAE78009C8E72E
:10052000F0B581B0044600688168C9074AD14FF62A
:10053000C0778168C7F6FF7707F17F0211420BD0C1
:10054000206E40F010002066606E40F00100606692
:10055000012001B0F0BD00BF8168394041F00101C8
:10056000816004F095FA42F2000246F20836C4F2C5
:100570000202216802F5807302F54275C5F6020693
:10058000994208BF2E46914208BF2E469942054621
:10059000306814D110F01F0014D110E08868C00733
:1005A00004D18868384040F00100886004F070FA97
:1005B000401B2168032802D30868C007C0D0086820
:1005C000C007EBD0002001B0F0BD0000000000002B
:1005D00040F600000121C5F60200012204F050BAE5
:1005E00040F600000121C5F60200002204F048BADE
:1005F000704700000000000040F600000821C5F62A
:100600000200012204F03CBA40F600000821C5F6C1
:100610000200002204F034BA70470000000000001D
:10062000002808BF704710B54EF2180145F2003C93
:10063000CEF20001C0F2070C03E000BF0138020453
:100640001AD051F804EC0B68002208E01A449C42CE
:10065000A2EB0402234628BF72446245EED20C6826
:100660009C42F3D10C689C4204BF0C689C42EDD1C3
:100670000C689C42F3D0E9E7BDE8104070470000E9
:1006800080B54EF21801C0EB0010CEF200014FEA27
:10069000401E002351F804CC0A6808E0134490423D
:1006A000A3EB0003024628BF634473450CD20868DD
:1006B0009042F3D10868904204BF08689042EDD19F
:1006C00008689042F3D0E9E780BD00000000000018
:1006D00010B5FFF78DFFFFF79FFF0CF02DFF0446CD
:1006E0000DF056F8204310BD2DE9F04F83B0029273
:1006F0000E460190FFF774FF922000F0C5F892209B
:1007000000F0C2F8552000F0BFF88046552000F0F8
:10071000BBF88346552000F0B7F88246552000F01C
:10072000B3F80446552000F0AFF80746552000F016
:10073000ABF80546FFF74CFF48EA0B2040F21C09D6
:1007400000B2C2F2004900EE100A4AEA042000B2E8
:1007500099ED001AB8EEC00A21EE000A01EE100A67
:1007600047EA052086ED000A00B299ED002A00EE66
:10077000100AB8EEC11AB8EEC00A22EE011A86EDD0
:10078000011A22EE000A86ED020AFFF73DFF8020E3
:1007900000F07AF8552000F077F80646552000F072
:1007A00073F8552000F070F88246552000F06CF880
:1007B0000546552000F068F88346552000F064F89F
:1007C0000446552000F060F80746552000F05CF81C
:1007D0008046FFF711FF0F2E25D14AEA052099ED3B
:1007E000011A00B2019900EE100A4BEA042000B28F
:1007F000B8EEC00A21EE000A01EE100A47EA08200E
:1008000081ED000A00B299ED012A00EE100AB8EE5F
:10081000C11AB8EEC00A22EE011A81ED011A22EEC9
:10082000000A81ED020AFFF7DBFEA22000F02CF89F
:10083000A22000F029F8552000F026F804465520A3
:1008400000F022F80546FFF7C3FEE0004FF6000374
:1008500040EA55110022CFF6FF73B2EB902F18BF7C
:100860001943B4EE001AB3EE072A00EE101A0298EC
:10087000B8EEC00AA0EE012A80ED002A03B0BDE860
:10088000F08F00000000000080B582B08DF80700F6
:1008900040F66050C2F200400DF107010DF1060272
:1008A00001234FF47A7CCDF800C006F04DFB9DF893
:1008B000060002B080BD0000FEE70000000000005E
:1008C00040F61471C2F200414A8882838A89C28349
:1008D000CA8A0284098C418440F2D011C2F20041DC
:1008E000C96841627047000070B52DED048B92B06D
:1008F00000219FED3D8AC4F220110F910C919FEDD4
:100900003B9A099140F2A04506914CF6CD41C3F6C1
:100910004C6105910021B0EE480AC4F2A011039188
:100920004CF6CD41F0EE490A0026C3F6CC511091A9
:10093000C2F20045CDE90D16CDE90A16CDE907163C
:10094000CDE9016100210446C4F2484100914664AA
:100950000FAA06640021C0E90166C0E90366C0E988
:1009600005662846119604960AF0CEFAB0EE480ABB
:10097000F0EE490A05F148000CAA00210AF0C4FA79
:10098000B0EE480AF0EE490A05F1900009AA0021EC
:100990000AF0BAFAB0EE480AF0EE490A05F1D800BA
:1009A00006AA00210AF0B0FA9FED129A40F2104018
:1009B000F0EE490AC2F2004003AA9FED0D0A0021A1
:1009C0000AF0A2FAB0EE480AF0EE490A40F25840A6
:1009D0006A46C2F2004000210AF096FA268012B060
:1009E000BDEC048B70BD00BF00606A4600409C45B2
:1009F0000000FA4400803B45B0B52DED0E8B40F26F
:100A0000B0219FED593AC2F200419FED58CA9FEDC7
:100A100058DAB0EE408A91ED092AB1EE400A33EE81
:100A2000423A40F64425B0EE60AAC2F20045B7EE65
:100A3000C0BA044633EE0C2AB0EE419A85ED003A76
:100A400022EE0D2AB7EEC22AB0EE420B0FF030FEB6
:100A500095ED001AB7EECAEAB0EE40AB31EE0C1AD3
:100A600021EE0D1AB7EEC11AB0EE410B0FF020FDCA
:100A700020EE0E0BB7EEC99A95ED001A3CEE411A26
:100A8000ABEE0A0BB7EEC8AA21EE0D1A30EE090B39
:100A9000BDEEC02BB7EEC10A12EE100A60830FF054
:100AA00007FEB0EE408B95ED001A3CEE411A21EEA8
:100AB0000D1AB7EEC11AB0EE410B0FF0F9FC20EEA3
:100AC0000E0B95ED001A31EE0C1AAAEE080B21EE72
:100AD0000D1A30EE090BBDEEC02BB7EEC10A12EEB7
:100AE000100AA0820FF0E4FDB0EE408B95ED001AE5
:100AF00031EE0C1A21EE0D1AB7EEC11AB0EE410B11
:100B00000FF0D6FC20EE4E0B95ED001A3CEE411A8C
:100B1000AAEE080B21EE0D1A30EE090BBDEEC02B2C
:100B2000B7EEC10A12EE100AE0820FF0C1FDB0EE7E
:100B3000408B95ED001A3CEE411A21EE0D1AB7EEEE
:100B4000C11AB0EE410B0FF0B3FC20EE4E0BABEE32
:100B5000080B30EE090BBDEEC00B10EE100A20831F
:100B6000BDEC0E8BB0BD00BF000034C300003442AA
:100B70002EFA8E3C000000004178022964D0012941
:100B800008D0002918BF70470021C1608161416110
:100B9000704700BF10B52DED028B90ED090A9FED57
:100BA000311A30EE011AB1EE048AB0EEC11AB4EE79
:100BB000481AF1EE10FA05DA00219FED2B0AC4F273
:100BC000C821416240F21041DFED270AC2F2004124
:100BD000044608460AF008F994ED030A9FED233A0B
:100BE000B0EEC01A94ED012AB4EE418A94ED021AD7
:100BF000F1EE10FA32EE415A33FE000A32EE013ABB
:100C000031EE421A35EE002A30EE434A33EE003A16
:100C100031EE000ABDEEC44ABDEEC21ABDEEC32AD3
:100C200014EE100ABDEEC00A608311EE100AA08215
:100C300012EE100AE08210EE100A2083BDEC028B47
:100C4000BDE81040704700BF002190ED010AD0EDD3
:100C5000020A9FED031AC4F27A41C160FFF7CCBECD
:100C600000007A440000C8C20000C8420000000032
:100C700040F23421C2F20041CA7A012A2ED0032A5E
:100C800031D00278012A33D0002A4DD1B1F807C003
:100C90000CF10A039BB2142B03D84FF0000CA1F8FF
:100CA00007C0B1F8053003F10A0292B2142A02D843
:100CB0000023A1F805300FFA8CF219B2A2EB8202E0
:100CC000A1EB810101EE102A00EE101AB8EEC11A54
:100CD000B8EEC00A80ED021A22E000BF0122427085
:100CE000CA7A032ACDD1022242700278012ACBD1DE
:100CF000B1F81510D1B1CA0740F20002C4F2964211
:100D000018BF82608B0703D50023CCF29643836023
:100D10004B0748BF4260090758BF70479FED060A5E
:100D20000421084480ED000A704700BF00214160A3
:100D30009FED020A0821F4E7000096C400000000BD
:100D400080B582B04FEA102C8DF80100080A8DF8AA
:100D50000200100A8DF80400180A8DF8060040F60B
:100D600020408DF803108DF80520C2F200406A463D
:100D70004FF400718DF800C08DF807300CF0DCFEE8
:100D800002B080BD0000000040F6B820C2F2004072
:100D900001F092BE0000000040F63030C2F2004088
:100DA00001F08ABE0000000040F6A830C2F2004008
:100DB00001F082BE0000000040F20F42D0F800C0F7
:100DC000C4F20202944511DC6F22C4F2020294457F
:100DD00022DC3F22C4F20202944539DC1022C4F224
:100DE000020294455AD0282254E000BF40F26F42DC
:100DF000C4F2020294451BDC40F23F42C4F20202FC
:100E000094452DDC40F21042C4F20202944545D0D4
:100E100040F228423EE000BF9F22C4F20202944505
:100E200028DC7022C4F20202944537D0882231E0D7
:100E300040F29F42C4F20202944523DC40F2704229
:100E4000C4F20202944529D040F2884222E000BF59
:100E50004022C4F20202944520D058221AE000BF7A
:100E600040F24042C4F20202944517D040F2584288
:100E700010E000BFA022C4F2020294450ED0B822B6
:100E800008E000BF40F2B842C4F20202944505D027
:100E900040F2A042C4F20202944517D10CF0F802CD
:100EA0004AF6AB23103ACAF6AA23A2FB03310AA3DF
:100EB0005F2AC1F302115B5C40F2FF312CEA0101B1
:100EC000C36588BF04318165084670472CF0FF0177
:100ED00081650846704700BF000610160006101610
:100EE00070B540F26F44D0F800C0C4F20204D0F8EC
:100EF00058E0A4451ADC9F25C4F20205AC4533DC5A
:100F00005725C4F20205AC455ADC1025C4F202058F
:100F1000AC4500F098802825C4F20205AC4500F0ED
:100F200092804025C4F202058AE000BF45F22F45B9
:100F3000C5F60205AC452DDC40F2B745C4F202050A
:100F4000AC454BDC40F27045C4F20205AC457AD0AA
:100F500040F28845C4F20205AC4574D040F2A04589
:100F6000C4F202056CE000BF40F22745C4F202055E
:100F7000AC4543DCA025C4F20205AC4563D0B825DE
:100F8000C4F20205AC455ED040F21045C4F2020541
:100F900056E000BF45F26B45C5F60205AC453FDCA7
:100FA00045F23045C5F60205AC454CD045F2444506
:100FB000C5F60205AC4546D045F258453EE000BFB7
:100FC0005825C4F20205AC453DD07025C4F2020597
:100FD000AC4538D08825C4F2020531E040F2B8456E
:100FE000C4F20205AC452ED045F20845C5F602050F
:100FF000AC4528D045F21C4520E000BF40F2284512
:10100000C4F20205AC451ED040F24045C4F20205D0
:10101000AC4518D040F25845C4F2020510E000BFBC
:1010200045F26C45C5F60205AC450CD045F2944539
:10103000C5F60205AC4506D045F28045C5F6020569
:10104000AC4540F0D080456EC66E002E866E6E6058
:101050001CBFD0E91C566E60A44515DC9F24C4F269
:101060000204A4452CDC5724C4F20204A44551DC3C
:101070001024C4F20204A4457AD02824C4F2020445
:10108000A44575D040246FE045F22F44C5F6020414
:10109000A44529DC40F2B744C4F20204A44545DC6F
:1010A00040F27044C4F20204A44561D040F2884486
:1010B000C4F20204A4455BD040F2A04454E000BF57
:1010C00040F22744C4F20204A4453FDCA024C4F249
:1010D0000204A4454CD0B824C4F20204A44547D06D
:1010E00040F2104440E000BF45F26B44C5F60204F4
:1010F000A44555DC45F23044C5F60204A44561D050
:1011000045F24444C5F60204A4455BD045F2584478
:1011100054E000BF5824C4F20204A44528D070242F
:10112000C4F20204A44523D088241DE040F2B84450
:10113000C4F20204A4451BD045F20844C5F60204DB
:10114000A4453FD045F21C4438E000BF40F228449B
:10115000C4F20204A4450BD040F24044C4F202049D
:10116000A44505D040F25844C4F20204A4453AD143
:101170008468C06D00F01F003F2505FA00F0CEF82E
:101180000800DCF80000402C20F48020CCF800009F
:10119000CCF8043023D1CCF80820CCF80C1070BD6A
:1011A00045F26C44C5F60204A4450BD045F28044D8
:1011B000C5F60204A44505D045F29444C5F60204E0
:1011C000A44510D1C46D012504F01F04806805FA00
:1011D00004F4CEF804404028CCF80430DBD0CCF83E
:1011E0000810CCF80C2070BD002818BF002901D1D0
:1011F000704700BF70B590F800C0427862F30A2CC7
:10120000A1F801C0427883784FEAD20E63F34A1EF8
:10121000A1F803E08278C37804799B0043EA921234
:1012200064F38A22A1F80520037944795B0864F30A
:10123000CA13A1F807304479C4F30114CC72022C0C
:1012400004D0032C04D1022401E000BF0324CC729B
:101250004579A2F58062022C4FEA95150D738579C8
:10126000C67945EA0625A1F80D50057A467A45EA81
:101270000625A1F80F50857AC67A45EA0625A1F819
:101280001150057BCD74457B0D75857BC67B45EA8A
:101290000625A1F81550057CACF58066407CA1F8C8
:1012A0000520A3F58062A1F807204FF00302A1F802
:1012B000016045EA0020AEF58066A1F80360A0F564
:1012C0008060A1F8090008BF01220A70BDE87040E3
:1012D00070470000000000007047000000000000A0
:1012E00080B54FF4806003F0EBFA4FF48050BDE816
:1012F000804003F0E5BA0000EFF3108072B600BF43
:10130000FEE700000000000040F62040C2F200406E
:1013100002F026BE0000000040F62040C2F200406D
:1013200002F01EBE0000000040F6C040C2F20040C5
:1013300002F016BE0000000040F6C040C2F20040BD
:1013400002F00EBE00000000B0B58AB041F28C443D
:101350006A46C2F200444021234602F009FD00988B
:10136000A0F20120032821D811A115A218A30FF281
:10137000700C51F8201052F820200FF2740E53F820
:1013800020300D885CF820C05EF82000158022888F
:1013900012BA120C0A80618809BA090C1980A18856
:1013A00009BA090CACF80010A17901700AB0B0BDFF
:1013B000140F00241E0F0024280F0024320F0024D5
:1013C0001C0F0024260F0024300F00243A0F0024A5
:1013D000160F0024200F00242A0F0024340F0024AD
:1013E000180F0024220F00242C0F0024360F002495
:1013F0001A0F0024240F00242E0F0024380F00247D
:1014000010B58AB040F2B8146A46C2F200444021D6
:10141000234602F0ADFC0098A0F20120072800F25C
:10142000CD80DFE800F0053B1DCBCB53CB7100BF77
:10143000B4F84C102088A4F854106188A28800BA2F
:1014400009BA000CA4F84C00080CA4F84E0011BA1C
:10145000080CA4F85000A07984F852000AB010BD1E
:1014600020886188B4F9602003BAA4F8682008BA1B
:10147000A188000CA4F86200180CA4F8600009BA56
:10148000090CA4F86410C2EB1341A279B1F5805F96
:1014900084F8662054DDA168013956E0B4F856108E
:1014A0002088A4F85E106188A28800BA09BA000CEE
:1014B000A4F85600080CA4F8580011BA080CA4F8B7
:1014C0005A00A07984F85C000AB010BD20886188B9
:1014D000B4F9422003BAA4F84A2008BAA188000C43
:1014E000A4F84400180CA4F8420009BA090CA4F8A6
:1014F0004610C2EB1341A279B1F5805F84F8482011
:1015000040DDA16A013942E020886188B4F93820C1
:1015100003BAA4F8402008BAA188000C6087180C10
:10152000208709BA090CA187C2EB1341A279B1F552
:10153000805F84F83E2043DDA169013945E000BFAA
:1015400011F5805FA16801DA0131A160B4F91020C2
:1015500000EB41309FED2E1B801AE06000EE100A78
:10156000B8EEC00B80EE010B9FED251B20EE010BAA
:101570009FED251B20EE010BB7EEC00B84ED050A95
:101580000AB010BD11F5805FA16A01DA0131A162D4
:1015900000EE100AB4F930209FED191B00EB41302A
:1015A000B8EE400B801AE06220EE010B9FED161B97
:1015B00020EE010BB7EEC00B84ED0D0A0AB010BD92
:1015C00011F5805FA16901DA0131A16100EE100A15
:1015D000B4F920209FED0A1B00EB4130B8EE400B20
:1015E000801AE06120EE010B9FED071B20EE010B3E
:1015F000B7EEC00B84ED090A0AB010BD00BF00BFF2
:10160000000000000000203F000000000080764045
:10161000000000000000424040F60000C2F200401E
:1016200090ED690A7047000040F60000C2F20040E9
:1016300090ED680A7047000040F60000C2F20040DA
:1016400090ED6A0A704700002DE9F0412DED048B02
:101650008CB03DA104463C480690D1E901020790B8
:10166000C86808920A6909904869CDE90A203CA037
:101670009FED418A071D9FED419A394900918ACF1C
:1016800001910169CDE9037140F25067B0EE480A5B
:10169000F0EE490AC2F2004706AA4069E846059002
:1016A0000021384602F10C06029308F10C0509F0FE
:1016B0002BFCB0EE480AF0EE490A07F14800002181
:1016C000324609F021FC9FED2E9A40F2C056B0EE52
:1016D000480AF0EE490AC2F200460021304642466E
:1016E00009F012FCB0EE480AF0EE490A06F1480093
:1016F00000212A4609F008FC40F2000840F2E016FA
:1017000040F24835C4F2A008002140F6AC57C2F2BE
:101710000046C2F200450120C4F29631C4E90181BD
:10172000208000BFC4F80C80F0682061284600F0DB
:101730002BF801200CF0C8FB013FF3D10CB0BDEC3D
:10174000048BBDE8F08100BF0000A0C100000000D4
:10175000000000000000A0420000000000000000A7
:101760000000C841000000000000C8420000A04284
:10177000000000000000000000FC7F460000FA4569
:1017800000401C4600000000F0B581B090ED011A49
:10179000044690ED070AB4EE401AF1EE10FA25D097
:1017A00094ED030A9FED513A31EE402A84ED071A79
:1017B000B0EE401A84ED080AB4EE432A9FED4A3A8F
:1017C00032EE033AF1EE10FA33FE022A9FED493A67
:1017D000B4EE423A9FED463A32EE033AF1EE10FA99
:1017E00073FE020AC4ED050A06E000BF94ED031A79
:1017F00094ED080AD4ED050A9FED3B2A31EE403AFC
:1018000031EE022A9FED394A40F25065B4EE443A77
:101810009FED374A32EE402AC2F20045F1EE10FA4F
:1018200031EE041A284632FE032A31EE400A9FEDBB
:10183000311AB4EE421AF1EE10FA30FE020A84EDCB
:10184000060A09F0D1FA40F2F01740F2DD51C2F277
:101850000047B7F90200884201DB0020788000EEE3
:10186000100AD5ED080A05F14800B8EEC00A09F0E3
:10187000BBFA40F2E01040F2C056C2F20040C2F2A1
:101880000046D4ED020A90ED030A304609F0ACFAA6
:10189000B7F90C00B0F5967F01DD0020B88100EEAD
:1018A000100AD6ED080A06F14800B8EEC00A09F0A1
:1018B0009BFA207880B195ED1A0A96ED1A1ABDEEC2
:1018C000C00ABDEEC11A10EE100A11EE101A01B0D6
:1018D000BDE8F04000F010B80020002101B0BDE8E4
:1018E000F04000F009B800BF0000B4C3000034436A
:1018F0000000B443000034C380B582B00B0A8DF8F9
:101900000310010A8DF8070040F6C0400022ADF830
:101910000020C2F20040ADF804206A468DF806109F
:1019200040F2FF118DF802300CF006F902B080BDD4
:101930002DE9F04381B00022009290F85C20012A4A
:1019400004D10221084601B0BDE8F08303680122FA
:1019500080F85C209A68520700F1148246F2083C35
:101960004FF6FF7EC5F6020CC0F20F0EACF54278C2
:101970000C68434516D0B4F1FF3F13DD94FAA4F58B
:1019800014EA0E0FB5FA85F54FF0010608BFA50E53
:10199000A40E05F01F0506FA05F5DE693543DD6185
:1019A00001E000BFA40E4D681F2204F01F04C5F320
:1019B000012605F01F05AA4003EB8606AC40376BF5
:1019C00027EA0202224332639A689C6802F004020A
:1019D00004F00804121940F004810A6807268D6893
:1019E0004345C2F34064C2F3045203EB840406FA95
:1019F00002F6676905FA02F227EA060642EA0602DB
:101A0000626117D041F20002C5F60042126802F08E
:101A10007042B2F1805F73D14A69DC680E2505EA35
:101A2000540402FA04F90C694F46042C00F0828039
:101A3000A8E000BF4FF60452CFF6FF72D1E904458B
:101A4000042C5CF8026065D14FF65852CFF6FF7255
:101A50005CF802201A6E0E68C2F3846216EA0E0465
:101A6000C6F3846596FAA6F6B6FA86F6374608BF38
:101A70002F46BA420CD11A6E22F000421A660A684A
:101A800002EA0E04C2F3846592FAA2F2B2FA82F676
:101A90005A6E37465A6E002C08BF2F46C2F3846236
:101AA000BA420CD15A6E22F000425A660A6802EA23
:101AB0000E04C2F3846592FAA2F2B2FA82F69A6E2A
:101AC00037469A6E002C08BF2F46C2F38462BA4292
:101AD0000CD19A6E22F000429A660A6802EA0E045D
:101AE000C2F3846592FAA2F2B2FA82F6DA6E002CA0
:101AF000DA6E08BF2E46C2F38462B2423AD070E07A
:101B0000DA684C69DD68D2064FEA55050AD405F05B
:101B10000E0209E006224FF0004902EA960205FA99
:101B200002F72FE005F0080204FA02F90C694F46AB
:101B3000042C27D11A6E0C6802F0F842A406A242C7
:101B400040F082801A6E22F000421A665A6E02F04D
:101B5000F842A24200F07E809A6E02F0F842A24261
:101B600003D19A6E22F000429A66DA6E02F0F842D1
:101B7000A24236D1DA6E22F00042DA669A68D207C3
:101B800033D0B8E003F160060A68434502F0F8423A
:101B900056F8245042EA090218BF05F000474345B1
:101BA00042EA070246F824200C695FD091F8212010
:101BB0000D7E56F8247027F00047012A08BF07F170
:101BC00000476A1EB2FA82F246F8247052090C6984
:101BD000D2021D6904F01F0425F4F045A2402A43F7
:101BE0001A619A68D20740F08680ACF516724345B8
:101BF00018BF03F1C002CD680C6805F0180516681F
:101C000004EA0E072EFA05F5BE432C403443146057
:101C10000024CA68C4F2FF74A24268D10C6814EAB6
:101C20000E0F3FD094FAA4F2B2FA82F2013202F01F
:101C30001E07092F02F01F073DD8012207EB4706B8
:101C4000BA4042EA065742E05A6E02F0F842A24217
:101C50007FF482AF5A6E22F000425A669A6E02F00A
:101C6000F842A2423FF47DAF7FE700BFACF52A7295
:101C7000CD6952F8246026F08076354342F824502E
:101C80000C6991F8205052F82460012D26F000765E
:101C900008BF06F1007642F824609A68D207A4D003
:101CA00029E000BF012202EB946202F01E070A2F16
:101CB00002F01F07C1D3012207EB4706BA400027F5
:101CC000CFF6206707EB06573A4342F00077C7F399
:101CD00040620725C7F304578E6803EB8202BD40BC
:101CE000546906FA07F724EA05052F4357610E6881
:101CF000B6F1FF3F02DD002149E000BF42F20001E2
:101D000042F20015C4F20201C4F2020501F580722C
:101D100001F542779342624608BF3A468B4208BFBC
:101D20003A4643F48077AF42156823D18A68D1F8E8
:101D300008111143C90725D1002105F0E074CCF248
:101D400052718E4208BF15F4000127D00021CCF259
:101D500021318E4260D10021B1EB146F5CD143453B
:101D600015D1DCF8001021F0E071214341F08071C1
:101D700065E000BF4FF60051CFF6FF715CF801102F
:101D8000C907D9D0016E41F020010166012100226E
:101D900080F85C20084601B0BDE8F0834345AAD135
:101DA000DCF8001042F6635221F0E071C0F23E52BE
:101DB000214341F40001CCF8001040F20C01C2F2C2
:101DC000004109688909A1FB02129109022202EB74
:101DD00041010091009900298DD0009901390091AD
:101DE000009900293FF487AF0099013900910099CB
:101DF00000293FF480AF0099013900910099002932
:101E00003FF479AF009901390091009900294FF012
:101E10000001E2D1BBE700BF43454FF00001B6D15E
:101E20000022CCF68432964208BF15F48002AED16F
:101E3000DCF8001021F0E071214341F48001CCF87E
:101E400000100021A3E700000068006C704700004C
:101E5000F0B581B04FF00001009178B3016E39B94F
:101E6000044600F07DF920460021616684F85C108C
:101E700001688A6892004FF6C072C5F6FF7202D5FB
:101E80008B6813408B608B68DB0032D48B6802F167
:101E900080521A4042F6635342F080528A6040F208
:101EA0000C02C0F23E53C2F2004212689209A2FB39
:101EB0000323012202EB931206E000BF0124204617
:101EC00001B0F0BD009A013A0092009A8AB1009ADE
:101ED000013A0092009A62B1009A013A0092009A87
:101EE000002A1FBF009A013A0092009A18BF002AE8
:101EF000E8D18A68D20009D4026E012442F01002AF
:101F00000266426E42F00102426600E000248A68E6
:101F1000036E03F0100302F00402D218026E59D1CE
:101F200022F4817246F2100C023202668A68C5F60B
:101F3000020CD20724D142F2001341F48072C4F2A1
:101F400002039A4242F20002C4F2020240F0F08020
:101F50009368D2F808512B43DB0711D102F5807347
:101F600002F5427599422B4618BF0CF53E7391421B
:101F700008BF2B4642681D6825F47C152A431A6069
:101F8000427EC56BACF11006B14245EA423529D01C
:101F900082682A4390F82050012D42EA054506D177
:101FA000426A0023CFF6FE7303EB42421543826A76
:101FB00022B102F47872C36A1A431543B1421FD0AA
:101FC0004CF20303CA68CFF6F0731A402A43CA6082
:101FD00028E000BF42F0100101240166204601B054
:101FE000F0BD00BFD0E9022E082A00F0A9800C2A1B
:101FF00000F0A4801C2A40F0A5801022A5E000BFBC
:1020000044F207035CF8042CCFF6F0731A402A431D
:102010004CF8042CDCF80020436B22F040621A4399
:10202000CCF800208A688B6802F0040203F00803F1
:10203000D2186AD1027EB1424FEA823226D0036BB7
:10204000CF6844F20305AF433B431A43CA6090F89C
:102050004420012A48D14FF61E030A69CFF60043F7
:102060000125D0E912761A40CFF6FF7505EB074738
:102070003243066D3A43476D3243036C3A430A617B
:102080000A6922F070421A430A613AE05CF8043CA3
:1020900090F8385044F2030E90F8447023EA0E038F
:1020A00043EA4503012F42EA03024CF8042C1BD1FA
:1020B0004FF61E02DCF80010CFF600421140D0E9C6
:1020C00012231143026D1943436D1143026C1943EE
:1020D00041F00101CCF80010DCF8001021F0704153
:1020E0001143CCF8001010E00A69B14222F001025D
:1020F0000A610A69036C22F0704242EA03020A6133
:1021000003D00546FEF78CF92846016802690B6B7F
:10211000012A23F00F0202D1C369013B1A430A636B
:102120000122016E62F301010166204601B0F0BD9B
:102130005CF8083CDB073FF411AF21E7082204E01C
:10214000002202E0182A18BF002242EA0E022A43A7
:1021500090F82050012D42EA05453FF421AF26E7D3
:10216000B0B5B0B0044602A844F2E0452830902152
:10217000C5F60205FEF710F9206805F5D951884229
:1021800002D030B0B0BD00BF002003904FF400215A
:1021900002910221049110220B90CDE90521CDE995
:1021A0000711C021CDE9091002A803F0C1F908B157
:1021B000FFF7A2F8286840F080702860286800F0D7
:1021C00080700190019830B0B0BD000000000000A8
:1021D000F0B581B042F2000446F20833C4F20204C2
:1021E000016804F5807504F54272C5F60203A94240
:1021F00008BF1346A14208BF13461E6889684907F5
:1022000003D490F85C10012902D1022001B0F0BD86
:10221000012180F85C100746FEF782F930B10020FA
:1022200087F85C00012001B0F0BD00BF3968384676
:10223000A94206F01F0218BF0C463B6E40F601761D
:10224000671A23EA0606B7FA87F77F09FB0706F540
:102250008077076600D11AB9076E27F480170766E2
:10226000076E0026FF044FF0000744BF476E27F0BB
:10227000060747664FF01C070F6080F85C6043B9A3
:10228000092A19D8012303FA02F240F221231A4243
:1022900012D0CA68920104D5026E012363F30D3295
:1022A00002664FF6C0728868C7F6FF7210400430AD
:1022B0008860002001B0F0BD016E41F4801101661C
:1022C000E1688901F5D5016E012262F30D310166E5
:1022D000002001B0F0BD00002DE9F041044602F0FD
:1022E000D7FB1CB3054694F83500022822D140F2F2
:1022F0000F472668C4F2020740F26F48BE426FF0F3
:102300000E00C4F202081DDC6F21C4F202018E42ED
:102310002ADC3F21C4F202018E4241DC1021C4F2CA
:1023200002018E4263D028215CE000BF0120BDE89D
:10233000F08100BF802060650120002184F8341006
:10234000BDE8F08146451BDC40F23F41C4F202018A
:102350008E422DDC40F21041C4F202018E4246D082
:1023600040F228413EE000BF9F21C4F202018E42AC
:1023700028DC7021C4F202018E4238D0882131E07D
:1023800040F29F41C4F202018E4223DC40F27041D0
:10239000C4F202018E422AD040F2884122E000BFFE
:1023A0004021C4F202018E4221D058211AE000BF20
:1023B00040F24041C4F202018E4218D040F258412E
:1023C00010E000BFA021C4F202018E420FD0B8215C
:1023D00008E000BF40F2B841C4F202018E4206D0CC
:1023E00040F2A041C4F202018E42314607D131468B
:1023F000306820F01E0041F8140B6FF080000A686E
:10240000464500EA020008601ADC9F20C4F2020080
:10241000864233DC5720C4F2020086425ADC102088
:10242000C4F20200864200F097802820C4F2020025
:10243000864200F091804020C4F202008AE000BF92
:1024400045F22F40C5F6020086422DDC40F2B7402F
:10245000C4F2020086424BDC40F27040C4F202003B
:10246000864279D040F28840C4F20200864273D09E
:1024700040F2A040C4F202006CE000BF40F22740EE
:10248000C4F20200864243DCA020C4F2020086426D
:1024900062D0B820C4F2020086425DD040F2104003
:1024A000C4F2020056E000BF45F26B40C5F60200E0
:1024B00086423FDC45F23040C5F6020086424BD0F2
:1024C00045F24440C5F60200864245D045F25840E8
:1024D0003EE000BF5820C4F2020086423CD070208B
:1024E000C4F20200864237D08820C4F2020031E0F4
:1024F00040F2B840C4F2020086422DD045F20840B6
:10250000C5F60200864227D045F21C4020E000BFFD
:1025100040F22840C4F2020086421DD040F2404002
:10252000C4F20200864217D040F25840C4F20200C2
:1025300010E000BF45F26C40C5F6020086420BD0A9
:1025400045F29440C5F60200864205D045F280402F
:10255000C5F60200864204D1206E016821F4807124
:102560000160306820F00100306000BF3068C007B3
:1025700010D002F08DFA401B0628F7D320206065AA
:10258000032084F835000120002184F83410BDE8D0
:10259000F08100BF20680821B8424FF03F0211DCF3
:1025A0006F23C4F2020398421EDC3F23C4F20203ED
:1025B000984235DC1023C4F20203984257D02823F6
:1025C00050E000BF40451BDC40F23F43C4F2020331
:1025D00098422DDC40F21043C4F20203984246D0E8
:1025E00040F228433EE000BF9F23C4F2020398421A
:1025F00028DC7023C4F20203984238D0882331E0EB
:1026000040F29F43C4F20203984223DC40F270433D
:10261000C4F2020398422AD040F2884322E000BF6D
:102620004023C4F20203984221D058231AE000BF8D
:1026300040F24043C4F20203984218D040F258439B
:1026400010E000BFA023C4F2020398420FD0B823C9
:1026500008E000BF40F2A043C4F20203984206D053
:1026600040F2B843C4F20203984240F0C580D4E976
:10267000163707F01F07404502FA07F25A5019DCD7
:102680009F21C4F20201884232DC5721C4F20201C8
:10269000884259DC1021C4F20201884200F0968081
:1026A0002821C4F20201884200F090804021C4F247
:1026B000020189E045F22F41C5F6020188422DDC76
:1026C00040F2B741C4F2020188424BDC40F2704153
:1026D000C4F20201884279D040F28841C4F202017A
:1026E000884273D040F2A041C4F202016CE000BF06
:1026F00040F22741C4F20201884243DCA021C4F227
:102700000201884262D0B821C4F2020188425DD041
:1027100040F21041C4F2020156E000BF45F26B41A5
:10272000C5F6020188423FDC45F23041C5F60201A0
:1027300088424BD045F24441C5F60201884245D05B
:1027400045F258413EE000BF5821C4F202018842E0
:102750003CD07021C4F20201884237D08821C4F2F3
:10276000020131E040F2B841C4F2020188422DD0AA
:1027700045F20841C5F60201884227D045F21C41C6
:1027800020E000BF40F22841C4F2020188421DD07F
:1027900040F24041C4F20201884217D040F2584151
:1027A000C4F2020110E000BF45F26C41C5F602011F
:1027B00088420BD045F29441C5F60201884205D00B
:1027C00045F28041C5F6020188420BD1616EA26ECE
:1027D000E06E4A6030B1016821F480710160D4E993
:1027E0001C014160012084F835000020002184F89C
:1027F0003410BDE8F08100BF0421012237E700005A
:10280000F0B190F83510022918D180B540F20F428E
:102810000168C4F20202914214DC6F23C4F2020385
:10282000994225DC3F23C4F2020399423CDC102389
:10283000C4F2020399425DD0282357E0802141650C
:102840000120704740F26F43C4F2020399421BDC3F
:1028500040F23F43C4F2020399422DDC40F21043A0
:10286000C4F20203994245D040F228433EE000BF43
:102870009F23C4F20203994228DC7023C4F20203AE
:10288000994237D0882331E040F29F43C4F20203DB
:10289000994223DC40F27043C4F20203994229D0EA
:1028A00040F2884322E000BF4023C4F20203994271
:1028B00020D058231AE000BF40F24043C4F2020384
:1028C000994217D040F2584310E000BFA023C4F251
:1028D000020399420ED0B82308E000BF40F2B8438B
:1028E000C4F20203994205D040F2A043C4F20203AD
:1028F000994275D191424FF0040280F8352011DCE5
:102900006F20C4F20200814222DC3F20C4F20200A8
:10291000814239DC1020C4F20200814259D02820C3
:1029200054E000BF40F26F40C4F2020081421BDC61
:1029300040F23F40C4F2020081422DDC40F21040E0
:10294000C4F20200814244D040F228403EE000BF81
:102950009F20C4F20200814228DC7020C4F20200F1
:10296000814236D0882031E040F29F40C4F202001C
:10297000814223DC40F27040C4F20200814228D040
:1029800040F2884022E000BF4020C4F202008142B1
:102990001FD058201AE000BF40F24040C4F20200AD
:1029A000814216D040F2584010E000BFA020C4F28F
:1029B000020081420DD0B82008E000BF40F2B840CC
:1029C000C4F20200814204D040F2A040C4F20200EE
:1029D0008142086820F001000860002080BD00BF2F
:1029E0000A6822F00E020A6045F25742C5F602025A
:1029F00091420A6822F001020A600FDC45F22F4280
:102A0000C5F60202914219DC45F20842C5F60202FF
:102A1000914229D045F21C4222E000BF45F27F429C
:102A2000C5F60202914213DC45F25842C5F6020295
:102A3000914219D045F26C4212E000BF45F230429B
:102A4000C5F6020291420FD045F2444208E000BFB1
:102A500045F29442C5F60202914205D045F2804209
:102A6000C5F6020291421AD1D0E9181CD0E916E34A
:102A70000A6822F480720A6003F01F01012202FA40
:102A800001F1CEF80410816ECCF80410C16E31B1A2
:102A90000A6822F480720A60D0E91C124A6001219F
:102AA00080F83510016D0022002980F8342094D080
:102AB0008847002080BD00002DE9F04782B000214A
:102AC000019140F20C0148F2B513C2F20041C1F687
:102AD0004E33856D40F26F490A680168C4F20209FD
:102AE0002E68A2FB032849452A6815DC9F22C4F200
:102AF000020291422CDC5722C4F20202914251DCC4
:102B00001022C4F2020291427BD02822C4F20202B7
:102B1000914276D040226FE045F22F43C5F6020382
:102B2000994229DC40F2B743C4F20203994245DCE2
:102B300040F27042C4F20202914262D040F28842F6
:102B4000C4F2020291425CD040F2A04254E000BFC5
:102B500040F22742C4F2020291423FDCA022C4F2BA
:102B6000020291424DD0B822C4F20202914248D0F2
:102B700040F2104240E000BF45F26B43C5F602034D
:102B8000994275DC45F23043C5F60203994200F0E4
:102B9000828045F24443C5F6020399427BD045F258
:102BA000584373E05822C4F20202914229D07022A5
:102BB000C4F20202914224D088221DE040F2B843C0
:102BC000C4F2020399421CD045F20843C5F6020341
:102BD000994260D045F21C4358E000BF40F22842C1
:102BE000C4F2020291420CD040F24042C4F202020E
:102BF000914206D040F25842C4F20202914240F0A3
:102C00005383C26D082302F01F0240F20F4A934023
:102C1000C4F2020A334200F0DE8051454FF0040452
:102C200012DC6F27C4F20207B9426DDC3F27C4F201
:102C30000207B94200F39C801027C4F20207B94290
:102C400000F0BD802827B5E0494569DC40F23F47E8
:102C5000C4F20207B94200F3938040F21047C4F275
:102C60000207B94200F0AB8040F22847A2E000BF63
:102C700045F26C43C5F6020399420CD045F28043FD
:102C8000C5F60203994206D045F29443C5F6020305
:102C9000994240F009830B68C76D07F01F070426AF
:102CA000BE40164218BF13F0040423D10226BE40D2
:102CB000164218BF13F0020442D1FA40120740F145
:102CC000F38213F0080200F0EF820A6822F00E028D
:102CD0000A60012101FA07F26A60416580F8351047
:102CE000C16C00294FF0000280F8342040F0D882F7
:102CF000DAE200BF1A046E6034D49A0636D40A6849
:102D000022F004020A6031E09F27C4F20207B942B0
:102D100040DC7027C4F20207B94250D0882749E04E
:102D200040F29F47C4F20207B9423BDC40F27047D1
:102D3000C4F20207B94242D040F288473AE000BFED
:102D40001A046E6000F1B4829A0600F1B5820A6836
:102D500022F00A020A60012180F83510002180F873
:102D60003410A9E2D90301D4816C98E2016C96E297
:102D70004027C4F20207B94221D058271AE000BF09
:102D800040F24047C4F20207B94218D040F2584717
:102D900010E000BFA027C4F20207B9420FD0B82745
:102DA00008E000BF40F2A047C4F20207B94206D0D3
:102DB00040F2B847C4F20207B94218BF08240F68AE
:102DC000274208D00F6827F004070F60AB60436DFF
:102DD00043F0010343650123934033426FD05145D3
:102DE00010DC6F27C4F20207B9421DDC3F27C4F292
:102DF0000207B94234DC1027C4F20207B94256D0A8
:102E000028274FE049451BDC40F23F47C4F2020748
:102E1000B9422DDC40F21047C4F20207B94246D055
:102E200040F228473EE000BF9F27C4F20207B942A4
:102E300028DC7027C4F20207B94238D0882731E075
:102E400040F29F47C4F20207B94223DC40F27047C8
:102E5000C4F20207B9422AD040F2884722E000BFFC
:102E60004027C4F20207B94221D058271AE000BF18
:102E700040F24047C4F20207B94218D040F2584726
:102E800010E000BFA027C4F20207B9420FD0B82754
:102E900008E000BF40F2A047C4F20207B94206D0E2
:102EA00040F2B847C4F20207B94240F007824F69C6
:102EB0003F0604D5AB60436D43F002034365042332
:102EC000934033426FD0514510DC6F27C4F20207A4
:102ED000B9421DDC3F27C4F20207B94234DC102797
:102EE000C4F20207B94256D028274FE049451BDCFF
:102EF00040F23F47C4F20207B9422DDC40F21047CE
:102F0000C4F20207B94246D040F228473EE000BF73
:102F10009F27C4F20207B94228DC7027C4F20207D7
:102F2000B94238D0882731E040F29F47C4F2020707
:102F3000B94223DC40F27047C4F20207B9422AD0FA
:102F400040F2884722E000BF4027C4F20207B9429E
:102F500021D058271AE000BF40F24047C4F20207D0
:102F6000B94218D040F2584710E000BFA027C4F281
:102F70000207B9420FD0B82708E000BF40F2A047CF
:102F8000C4F20207B94206D040F2B847C4F20207C1
:102F9000B94240F09B810F68BF0704D5AB60436D19
:102FA00043F004034365102303FA02F2324200F0B7
:102FB000828051454FF0080310DC6F27C4F20207EE
:102FC000B9421DDC3F27C4F20207B94234DC1027A6
:102FD000C4F20207B94256D028274FE049451BDC0E
:102FE00040F23F47C4F20207B9422DDC40F21047DD
:102FF000C4F20207B94246D040F228473EE000BF83
:103000009F27C4F20207B94228DC7027C4F20207E6
:10301000B94238D0882731E040F29F47C4F2020716
:10302000B94223DC40F27047C4F20207B9422AD009
:1030300040F2884722E000BF4027C4F20207B942AD
:1030400021D058271AE000BF40F24047C4F20207DF
:10305000B94218D040F2584710E000BFA027C4F290
:103060000207B9420FD0B82708E000BF40F2A047DE
:10307000C4F20207B94206D040F2B847C4F20207D0
:10308000B94218BF04230F681F4214D0AA600A680F
:1030900052030A6808D4D20508D40A6822F008024C
:1030A0000A60016C21B906E0110351D4016C11B121
:1030B000044688472046C16D01F01F02202101FA15
:1030C00002F3334200F0AF8001681027514511DC54
:1030D0006F26C4F20206B1421EDC3F26C4F202068D
:1030E000B14239DC1026C4F20206B1425BD0282678
:1030F00054E000BF49451BDC40F23F46C4F20206E3
:10310000B14231DC40F21046C4F20206B1424AD06C
:1031100040F2284642E000BF9F26C4F20206B142B8
:103120002CDC7026C4F20206B1423CD0882635E081
:1031300040F29F46C4F20206B14227DC40F27046DC
:10314000C4F20206B1422ED040F2884626E000BF0B
:10315000816C0029ACD1AEE74026C4F20206B14230
:1031600021D058261AE000BF40F24046C4F20206C1
:10317000B14218D040F2584610E000BFA026C4F279
:103180000206B1420FD0B82608E000BF40F2A046C8
:10319000C4F20206B14206D040F2B846C4F20206BA
:1031A000B14218BF02270E683E423CD0AB6090F897
:1031B0003530042B0B681DD123F016030B604B69CF
:1031C00023F080034B61036C0BB9836C1BB10B685C
:1031D00023F008030B603F219140A960012180F892
:1031E0003510016D00294FF0000280F8342057D1CE
:1031F0005AE000BF5A030A680CD4D2050ED40A68FC
:1032000022F010020A60012180F83510002180F8B8
:10321000341003E0110301D4416C00E0C16B11B123
:10322000044688472046416D00293DD0416DC907BD
:1032300034D0042180F8351001684FEA98220B68D9
:1032400023F001030B60019B0133019393421AD8D1
:103250000B68DB0717D0019B01330193934212D80F
:103260000B68DB070FD0019B0133019393420AD80F
:103270000B68DB0707D0019B01330193934202D80F
:103280000B68DB07DFD10968C9074FF0030108BFEE
:10329000012180F83510002180F83410C16C19B17B
:1032A00002B0BDE8F047084702B0BDE8F08700BFB4
:1032B000D90301D4416CF2E7C16BF0E70B6804233A
:1032C000934033427FF4FFAD6DE600BF0B686AE6C2
:1032D0002DE9F041044601F0DBFBFCB140F26F4800
:1032E00005462068C4F2020840451BDC9F21C4F259
:1032F0000201884232DC5721C4F20201884259DCC3
:103300001021C4F20201884200F083802821C4F217
:103310000201884200F07D80402175E00120BDE877
:10332000F08100BF45F22F41C5F60201884229DC39
:1033300040F2B741C4F20201884247DC40F27041DA
:10334000C4F20201884264D040F28841C4F2020112
:1033500088425ED040F2A04156E000BF40F22741D3
:10336000C4F20201884241DCA021C4F20201884279
:103370004FD0B821C4F2020188424AD040F2104135
:1033800042E000BF45F26B41C5F60201884200F3FE
:10339000D18045F23041C5F60201884200F0DD805F
:1033A00045F24441C5F60201884200F0D68045F25C
:1033B0005841CDE05821C4F20201884229D0702141
:1033C000C4F20201884224D088211DE040F2B841B5
:1033D000C4F2020188421CD045F20841C5F6020140
:1033E000884200F0BA8045F21C41B1E040F2284129
:1033F000C4F2020188420CD040F24041C4F2020102
:10340000884206D040F25841C4F20201884240F09E
:103410003981022184F83510002184F834100168C4
:1034200021F00101016000BF20680168C9070DD0CB
:1034300001F02EFB401B0628F6D3202060650320F8
:1034400084F835000120BDE8F08100BF48F23F025A
:1034500004F108060168CFF61062114065694CCE90
:103460001143A2691943E3693143266A0D43616A36
:103470002B43042943EA060343EA020303D1D4E9B8
:103480000B652E4333436568A5F12906292E00F20A
:103490003182DFE816F02B002B002B002B002B00D5
:1034A0002B002F022F022F022F022F022F022F029A
:1034B0002F022F022F022F022F022F022F022F0284
:1034C0002F022B002B002B002B002F022F022F028C
:1034D0002F022B002B002F022F022F022F022F0270
:1034E0002F022B002B002B002B0000BF43F4801376
:1034F00003600429436923F0070341EA030140F014
:10350000DD80D4E90A53002B41EA050100F0D680A2
:10351000B2F5005F00F0B880002A40F0C180022DB3
:1035200000F0C180012D00F0B580002D00F0BB80BF
:10353000C4E000BF45F26C41C5F6020188420CD0E0
:1035400045F28041C5F60201884206D045F2944119
:10355000C5F60201884240F0958004F1080E022170
:1035600084F83510002184F834100168A3699EE8BE
:103570000450A2F18005E769B5FA85F566696D0921
:10358000402A4FEA853543EA07026FF3101142EAF9
:10359000060208BF102541EADC0142EA0E02236A56
:1035A000294341EAD20141EA131140F80819C0B297
:1035B000CD2148433C2101EA9020E0652046FDF7FB
:1035C000FBFBE16D012201F01F0102FA01F14160F4
:1035D0002068404500F381809F21C4F202018842A7
:1035E00014DC5721C4F20201884227DC1021C4F206
:1035F0000201884200F0C7802821C4F202018842FB
:1036000000F0C1804021C4F20201B9E040F227413C
:10361000C4F20201884221DCA021C4F202018842E6
:1036200000F0B180B821C4F20201884200F0AB8002
:1036300040F21041C4F20201A2E000BF5821C4F2DE
:103640000201884200F09F807021C4F2020188428A
:1036500000F099808821C4F2020191E040F22841F3
:10366000C4F20201884200F08E8040F24041C4F270
:103670000201884200F0878040F25841C4F2020102
:103680007EE000BF4020D9E6032D17D8DFE805F023
:103690000E0B0E02A3F1C072B2FA82F2520904E0DC
:1036A000032D03D30AD1C3F300623AB14020606511
:1036B000012084F83500BDE8F08100BF416120465B
:1036C000FDF77AFBE16D3F2201F01F0102FA01F1E3
:1036D0008160206840457FF77FAF45F22F41C5F6F6
:1036E0000201884216DC40F2B741C4F2020188426E
:1036F00026DC40F27041C4F20201884243D040F21D
:103700008841C4F2020188423DD040F2A041C4F297
:10371000020135E045F26B41C5F6020188421FDC2B
:1037200045F23041C5F6020188422CD045F24441B1
:10373000C5F60201884226D045F258411EE000BF7E
:1037400040F2B841C4F2020188421CD045F208415F
:10375000C5F60201884216D045F21C410EE000BFBA
:1037600045F26C41C5F6020188420CD045F2944105
:10377000C5F60201884206D045F28041C5F6020135
:10378000884240F0E18045F2574C45F6FC0EC5F604
:10379000020CC5F6020E60450EDC45F22F41C5F65F
:1037A0000201884218DC45F20841C5F60201884250
:1037B00028D045F21C4121E045F27F41C5F60201C7
:1037C000884213DC45F25841C5F60201884219D0FF
:1037D00045F26C4112E000BF45F23041C5F60201EE
:1037E00088420FD045F2444108E000BF45F29441C1
:1037F000C5F60201884205D045F28041C5F60201B6
:10380000884247D100F0FC014CF6CD420839CCF695
:10381000CC42A1FB0212AEF1FC05AEF17C0613090D
:10382000A26803F01F01802A4FF0010205EB830517
:10383000256602FA01F26666A26605D10020606084
:10384000286072601EE000BF6368D9B25F1E072F58
:103850002960726016D84E1E082E19D260450EF1EE
:10386000440237DC45F22F41C5F60201884249DCAB
:1038700045F20841C5F60201884259D045F21C4183
:1038800052E000BF00206067C4E91B005CE000BF9D
:10389000E06E54E000F0F8014AF6AB221039CAF6A7
:1038A000AA22A1FB021240F20F43C4F20203082530
:1038B0001109984203F1AA060B4688BF05EB1213C3
:1038C00040F60005B042C4F2020505F1800628BFAB
:1038D0000B46A5E745F27F41C5F6020188421BDC95
:1038E00045F25841C5F60201884221D045F26C41AB
:1038F0001AE000BF25F00307742F08BF43F48013BC
:10390000F6E500BF45F23041C5F6020188420FD00E
:1039100045F2444108E000BF45F28041C5F602018E
:10392000884205D045F29441C5F60201884213D180
:103930000EEB83000121E066B14022676167002140
:103940000160D4E91C01416000206065012184F818
:103950003510BDE8F08100BF40F60000C4F202005F
:1039600000F1FC0E00F5A072E2E70000000000008C
:1039700030B110B590F83440012C03D1022010BDB5
:1039800001207047012480F8344090F83540012C24
:1039900028D1022480F8354000244465D0F800C0C6
:1039A000DCF8004024F00104CCF800400446FDF7A8
:1039B00097FA40F20F412068C4F20201884219DCF4
:1039C0006F21C4F2020188422ADC3F21C4F20201C5
:1039D000884241DC1021C4F20201884261D02821D2
:1039E0005CE000BF4FF400614165002180F83410B5
:1039F000012010BD40F26F41C4F2020188421BDC7D
:103A000040F23F41C4F2020188422DDC40F21041F5
:103A1000C4F20201884244D040F228413EE000BF97
:103A20009F21C4F20201884228DC7021C4F2020105
:103A3000884236D0882131E040F29F41C4F2020131
:103A4000884223DC40F27041C4F20201884228D04F
:103A500040F2884122E000BF4021C4F202018842C6
:103A60001FD058211AE000BF40F24041C4F20201C9
:103A7000884216D040F2584110E000BFA021C4F2A5
:103A8000020188420DD0B82108E000BF40F2B841E1
:103A9000C4F20201884204D040F2A041C4F2020103
:103AA0008842016841F001010160002010BD000062
:103AB00090F89830013B012B0ED80068836D0B42C3
:103AC00012D0836D0B408B4232D1C36D43F00203A1
:103AD000C3658B050ED412E000F19C010120022287
:103AE0000B681A430A607047C36D43F00103C36556
:103AF0008B0504D5D0F8E0301343C0F8E0304B0517
:103B000004D5D0F8E4301A43C0F8E4204FF6FF7231
:103B1000436DC3F6CF720A401A4342658A0F4AF6D4
:103B200014010020C4F200010B681A430A607047B8
:103B30000323C3658B05DDD4E1E70000000000002E
:103B400090F89830022B1BD12DE9F0430668D6F887
:103B5000C03013F07C5F1BD0D6F8C4309B0221D458
:103B6000D6F8C4300C69C3F3044CD1E90035002DFC
:103B70008D6821D023432B4343F0804E20E000BFCB
:103B8000D0F89C1041F00801C0F89C10012070474B
:103B9000D0F89C1041F02001C0F89C100120BDE835
:103BA000F08300BFD0F89C1041F40071C0F89C1065
:103BB0000120BDE8F08300BF44EA834343EA050ED9
:103BC000836ED0F88450D1E907970CFB03F48B691E
:103BD00049EA0767D1F81480D1F80C901F4305EB30
:103BE000840347EA080745F824E047EA09475F608D
:103BF000CF6887B141F29C25083303320024C0F618
:103C0000010500BF171957F8037C1F51CF68043412
:103C1000EF5DBC42F6D3012101FA0CF1C6F8D010D9
:103C2000C0F894100020BDE8F08300000000000000
:103C3000704700000000000090F89830012B0FD171
:103C4000012900684FEA026212D0D9B9D0F8F01009
:103C500021F07C511143C0F8F0100020704700BFE4
:103C6000D0F89C1041F00401C0F89C10012070476E
:103C7000D0F8A01021F0FE411143C0F8A0100020A0
:103C8000704700BFD0F8B01021F0FE411143C0F8DA
:103C9000B01000207047000090F89820013A012AE7
:103CA0000CD880B50A68002ACA680FD00B69072AA9
:103CB00043EA427E18D18B691BE000BFD0F89C100C
:103CC00041F00201C0F89C1001207047072A19D169
:103CD0000A69D1E906C3120442EA032242EA0C024D
:103CE00042F0605218E000BFD1F808C04B6943EAC7
:103CF0008C73006F496800EBC10240F831E05360FB
:103D0000002080BD8B68D1E904CE9B0743EAC262E4
:103D100042EA0C4242EA0E024968C06E40F8212095
:103D2000002080BD0000000090F898C0BCF1010F99
:103D30000ED19200006842EA0111DDF800C041EAAC
:103D4000430141EA0C01C0F880100020704700BF19
:103D5000D0F89C1041F00401C0F89C10012070477D
:103D600070470000000000007047000000000000E5
:103D70002DE9F04390F89870022F11D1402919D104
:103D80000668D6F8A07017F4FE0F2FD0D6F8A470EE
:103D90007F0635D0D6F8A470FF013BD400273CE065
:103DA000D0F89C1041F00801C0F89C100120BDE83B
:103DB000F08300BF41290FD10668D6F8B07017F420
:103DC000FE0F13D0D6F8B4707F0619D0D6F8B470B1
:103DD000FF012BD400272CE0076D8F4206D900F19C
:103DE0007C05466D4FF0000C0F462BE0D0F89C1080
:103DF00041F02001C0F89C100120BDE8F08300BF15
:103E0000D0F89C1041F48071C0F89C100120BDE8EE
:103E1000F08300BFD6F8A070FF0FD6F8A46000F1C1
:103E20007405C6F305263E44476C0AE0D6F8B07028
:103E3000FF0FD6F8B46000F17805C6F305263E44BE
:103E4000C76CB44607FB06F42D6805EB840E55F8E5
:103E5000247017F08047576055F8247027F06046AB
:103E600008BFC7F38A46166055F8247007F000575C
:103E7000976055F8244004F000441461BEF80440F3
:103E8000D461BEF8064014F00F04D460DEF804409C
:103E900004F480145461DEF8044004F400149461C6
:103EA0009EF8074004F07F041462DEF804404FEAF5
:103EB000D474546228D041F29C280024C0F6010832
:103EC0000EEB0406651C377A1F55D76818F8077083
:103ED000BD4219D21F19757A7D70D56818F8059002
:103EE000A51C4D453FBFB57ABD70D56818F8059043
:103EF0003CBFE51C4D4507D2F57A0434FD70D5680A
:103F000018F80550AC42DBD3402905D10068C0F851
:103F1000A8C00020BDE8F083412905D10068C0F8A1
:103F2000B8C00020BDE8F0831F2909D8006801222D
:103F300002FA01F1C0F898100020BDE8F08300BF3C
:103F4000006801F01F01012202FA01F1C0F89C1083
:103F50000020BDE8F0830000704700000000000072
:103F60002DE9F04F87B004464AF61000C4F2000075
:103F700001684AF61400C4F20000026820680A4092
:103F8000D0F850B0D0F85490056D466D036D029393
:103F9000436D0193036D0693436D0593036D049385
:103FA000436D0393D0F854A0D0F850805FEACA5311
:103FB00011D518F480710ED04FF4807101654AF666
:103FC00010010020C4F20001174608602046FFF7E8
:103FD000C3FF3A4620685FEA4A510BEA090B4FEAF1
:103FE000827740F14B814AF6100918F48061C4F2DF
:103FF000000910D0D0F8DC100092D0F8E420114075
:104000004FF4806202650020C9F80000204600F0ED
:1040100043FC009A206805EA06050BF4704657B188
:104020000021016502F00300C9F80000204639466E
:10403000FFF7FEFD2068DDE9012101EA020705F036
:104040000F0546B106650020C9F80000204631463C
:1040500000F02AFC206807F0F00645B10565002055
:10406000C9F800002046294600F0C2FB206846B18E
:1040700006650020C9F800002046314600F0D4FB58
:1040800020685FEA0A510CD518F4006109D04FF49A
:10409000006101650020C9F80000204600F008FC1E
:1040A00020685FEA8A5111D518F400710ED0D0F85B
:1040B000D810D0F8E02011404FF4007202650020C3
:1040C000C9F80000204600F0EBFB20685FEA0A31E7
:1040D0000CD518F4002109D04FF40021016500200F
:1040E000C9F80000204600F07FFB20685FEACA3173
:1040F0000CD518F4803109D04FF4803101650020CF
:10410000C9F80000204600F0C3FB20685FEA4A318E
:10411000DDE9032101EA02050CD518F4802109D05C
:104120004FF4802101650020C9F80000204600F00E
:10413000ABFB20685FEA8A31DDE9052102EA010272
:1041400005F060710ED518F400330BD04FF4003336
:1041500003650023C9F80030D4F89C3043F0800395
:10416000C4F89C3002F0715539B101650020C9F8DE
:1041700000002046FFF7F8FD206845B105650021E5
:10418000C9F80010D4F89C102943C4F89C10A9F574
:10419000016188420AD0D4F89C0000286AD02046E9
:1041A00007B0BDE8F04FFFF7DBBD00BF6068816876
:1041B0008907F0D0016A426A036A476A114003EA3C
:1041C000070202F03005D0F82080D0F82490D0F813
:1041D00020B0466A026A069211F00F01426A059207
:1041E000D0F824A0026A049203D00162204600F0B5
:1041F0003FFB08EA09072DB16068294605622046A1
:1042000000F03EFB5FEA4A6006EA0B0607F4C07561
:104210000ED5049810F040000AD060684023C16BAE
:10422000C26B090C02F03F020362204600F024FB3F
:10423000DDE9051000EA010706F4FC462DB16068CF
:1042400029460562204600F00FFB07F4F02036B146
:1042500061680E62D4F89C103143C4F89C100028A9
:1042600099D061680862D4F89C100843C4F89C0097
:1042700091E700BF07B0BDE8F08F00BF4AF6100914
:10428000C4F20009002F05EA06050BF470467FF41E
:10429000C7AED0E600000000F0B12DE9F04F83B0CA
:1042A0004AF200080446C4F200080068404533D0D2
:1042B00094F89810B9B3816921F01001816100F080
:1042C000E7FB054620688169090707D500F0E0FB98
:1042D000401B0B28F6D312E001207047816941F0A2
:1042E0000101816100F0D4FB054600BF20688169AF
:1042F000C90721D100F0CCFB401B0B28F6D30120CD
:10430000D4F89C100843C4F89C00032084F898005B
:10431000012003B0BDE8F08F08F58071616094F86A
:1043200098100029C7D1002084F89900204600F099
:10433000B3F92068BFE700BF816941F002018161E4
:10434000217C826922F04002012918BF403282613B
:10435000617C826922F48042012908BF02F5804213
:104360008261A17C826922F48052012918BF02F582
:1043700080528261816921F44073D4E902120B43B7
:104380008361836923F0A4038361036923F010032D
:1043900003619AB1012A0DD0022A09D08369032A48
:1043A00043F080038361036943F01002026105D189
:1043B000202200E0042283691A438261D4E9057255
:1043C000E369561E6FF0FF02256A02EB0323B1F585
:1043D000407F43EA4663A5F1010646EA030640F240
:1043E0000003CFF6FF7303EB074746EA0701C161FD
:1043F00010D1D4E90B65D4E90917013F02EB06227D
:104400006FF00F063A4306EB05173A4303EB014101
:104410001143C160236E2BB1616ED0F8C0201143EF
:10442000C0F8C010E16DCDE90113D94241F250113D
:10443000C0F6010109D0D0F8C820A36E22F007020F
:1044400051F823301A43C0F8C820D4F840C0BCF15A
:10445000000F09D0D0F8BC20636C22F0070251F89D
:1044600023301A43C0F8BC20D4F848B0BBF1000F89
:104470000AD0D0F8BC20E36C22F0700251F823304F
:1044800042EA0312C0F8BC20D4F850A0BAF1000FE1
:104490000AD0D0F8BC20636D22F4E06251F82310FA
:1044A00042EA0121C0F8BC10404504D161688A6825
:1044B00022F003028A600021C4F89410C4F89C1012
:1044C000012184F8981004F13409D0F884104FF6D3
:1044D000FC729143656C99E80C02009541EA8201F7
:1044E000C0F88410D0F8841021F47F0141EA034120
:1044F000C0F884109918D0F888306FF38F0343EA1E
:104500008103C0F88830D0F8883023F4FE0343EAF2
:104510000943C0F8883001EB4903D0F8A0606FF37D
:104520008F0646EA8306C0F8A060D0F8A06026F4A3
:10453000FE0646EA0C46C0F8A06005FB0C36D0F833
:10454000B0306FF38F0343EA8603C0F8B030D0F881
:10455000B03023F4FE0343EA0B43C0F8B030E36C01
:10456000D0F8AC506FF38F0503FB0B6645EA860568
:10457000C0F8AC50D4F8548008FB0A65D0F8F0605D
:104580006FF38F0646EA8506C0F8F060D0F8F0E0D9
:10459000A66D2EF47C1747EA0647C0F8F070F700C6
:1045A00007EB8507D0F8C0506FF38F052F43C0F895
:1045B000C070D0F8C070009DDDF804E027F47C17CF
:1045C00005FB0CFC4AF2000547EA0E47C0F8C07034
:1045D000C4F2000503FB0BC305F54067D0F8C050DB
:1045E00007EB820207EB810125F07C57029D47EA29
:1045F0000567C0F8C07001EBC90008FB0A372167E6
:10460000A16E00EB8C0C606700EB8303E266C4E9EB
:104610001EC30EFB01F300EB87006943C4F8800062
:1046200000EBC600C4F8840000EB8300C4F88800E7
:1046300000EB81004DF2FC31C4F20001C4F890009F
:10464000884201D920205BE682421FD21146002019
:1046500041F8040BD4F890309942BFF45AAE506040
:1046600002F10801D4F8903099423FBF906002F106
:104670000C01D4F890309942BFF44BAED0601032A8
:10468000D4F890108A42E1D343E600BF002003B083
:10469000BDE8F08F00000000B0B5B6B0044602A837
:1046A000B8210025CDE93455CDE932553195FBF7D8
:1046B00073FE4AF200412068C4F2000188423FD0F4
:1046C0004AF20001C4F20001884240F088800020D4
:1046D00003904FF4004002904FF080501D9002A8CC
:1046E00000F026FF08B1FCF707FE40F2783144F2F3
:1046F000E040C2F20041C5F602000A68002A02F159
:1047000001020A6008D1C16841F48071C160C168CA
:1047100001F48071019101990168152441F00801AB
:1047200001600068132500F008000190019840F234
:104730000040C5F60200032100F5006034E000BF30
:104740004FF4004002904FF080501D9002A8039556
:1047500000F0EEFE08B1FCF7CFFD40F2783144F2F4
:10476000E040C2F20041C5F602000A68002A02F1E8
:1047700001020A6008D1C16841F48071C160C1685A
:1047800001F48071019101990168162441F0020140
:1047900001600068142500F002000190019840F2C9
:1047A00000406021C5F602003191022132910021C2
:1047B000CDE933110921359131A900F08DF805219A
:1047C0000022284600F080FA284600F069FA052108
:1047D0000022204600F078FA204600F061FA36B058
:1047E000B0BD0000000000007047000000000000A5
:1047F000C90708BF704740F62041C2F20041884215
:1048000006D040F6C041C2F20041884206D070474F
:1048100040F62040C2F20040FCF796BD40F6C04092
:10482000C2F20040FCF7ECBD704700000000000041
:1048300090F8981001290DD1022180F89810016894
:104840008A6922F001028A610021C0F89C100020D0
:10485000704700BFD0F89C1041F00401C0F89C10D4
:1048600001207047000000007047000000000000B9
:1048700070470000000000007047000000000000CA
:1048800070470000000000007047000000000000BA
:1048900070470000000000007047000000000000AA
:1048A000704700000000000070470000000000009A
:1048B000704700000000000070470000000000008A
:1048C0008821C5F600010A68024208BF70470860E7
:1048D000FFF7F2BF000000002DE9F04F83B00F6832
:1048E000002F00F0C98000F1264642F2004506F193
:1048F000FF76C5F602050A22A8424FEAB62540F225
:10490000040C08BF092200F120030093082DC5F60E
:10491000000C38BF4FEAB622002400264FF00008F2
:1049200001920AE008F101080F6837FA08F206F16F
:10493000020604F1040400F09F80012202FA08FE3E
:1049400017EA0E09EED0D1F804B003220BF00307EA
:10495000B2407D1E6FEA020A012D11D88268CD682F
:1049600002EA0A02B5402A438260CBF3001542688E
:1049700022EA0E0205FA08F52A43426004E000BF6D
:10498000032F01D103271FE0C2688D6802EA0A02E3
:10499000B540022F42EA0502C26015D16FF0030252
:1049A00004F01C0502EA580B009A0F2352F80BE0A2
:1049B000AB400F692EEA0303AF403B4342F80B3094
:1049C000D1F804B00BF00307026807FA06F302EA15
:1049D0000A021BF4403F42EA03020260A2D044F202
:1049E000F44340F2084EC5F60203C5F6000E0F254B
:1049F0001A6842F002021A601A6802F00202029279
:104A000028F00302029B04F00C0352F80E709D4044
:104A1000AF43019D05FA03F33B4342F80E304FF0DC
:104A2000B04EDEF800204B6842EA0907DD0258BFAD
:104A300022EA09079D02CEF80070DCF8002042EA65
:104A4000090758BF22EA09079D03CCF80070DCF87B
:104A5000802042EA090758BF22EA0907DB03CCF8A5
:104A60008070DCF87C2042EA090758BF22EA090777
:104A7000CCF87C7056E700BF03B0BDE8F08F0000B3
:104A8000002A08BF0904816170470000000000008F
:104A900045F29400C2F20040006870470000000038
:104AA00040F2040045F29401C2F20040C2F200411B
:104AB00000780A6810440860704700000000000099
:104AC00080B5032000F030F901F052FC44F21841A7
:104AD00041F2C013C5F60201C0F601030A68C2F331
:104AE00003229A5C096801F00F0102F01F02595C71
:104AF000D04040F21002C2F2004201F01F0120FA41
:104B000001F1116040F20C01C2F2004108600F2077
:104B100000F00AF800281CBF012080BD00F0A8F8B2
:104B2000002080BD000000000F2847D8B0B58AB033
:104B30000446372000222146002500F0C5F8372022
:104B400000F0AEF840F20800C2F20040046044F207
:104B5000E840C5F60200016841F0200101600068EC
:104B600001A900F020000290029802A801F04CFB7D
:104B7000079C002C18BF012401F09AFB4DF68361BD
:104B8000A040C4F21B3141F20042A0FB010140F6FB
:104B90003460C2F200404FF0FF33C4F20002026002
:104BA00003EB9141C0E9011540F2E731C0E903157B
:104BB00002F052FC20B101200AB0B0BD01207047C4
:104BC00040F63460C2F2004002F07AFC0AB0B0BD98
:104BD00010B54EF6A05E4378CEF2000E90F800C0FD
:104BE0004EF8083CDEF8003023F00103CEF8003028
:104BF00043684EF8043C037BC27A817A447B1206F8
:104C000042EA0372837B42EAC141C27B41EA8441AA
:104C1000447A41EA4341007A41EA024141EA0421EF
:104C200041EA400040EA0C00CEF8000010BD000050
:104C30004EF62450CEF20000BFF35F8F016821F4DE
:104C40008031016000210167704700000000000012
:104C50004EF6245140F00100CEF2000108670868CA
:104C600040F480300860BFF34F8FBFF36F8F704701
:104C700081B044F2F4400022C5F60200016841F020
:104C80000201016000680F2100F0020000906FF047
:104C90000100009B01B000F017B800000000000008
:104CA000002848BF704700F01F01012202FA01F1FD
:104CB0004EF20012C0F34A10CEF2000242F8201069
:104CC000704700000000000070B54EF60C5C4FF01D
:104CD000FF36CEF2000C00F1604505F56445DCF8C6
:104CE0000030C3F3022E8EF00703042B28BF0423E9
:104CF000BEF1030406FA03F321EA030100F00F03F7
:104D000038BF0024043B0028634406FA04F048BF7F
:104D100003F10C05A14022EA0000084300012870BD
:104D200070BD0000000000004EF60C514FF6FF036E
:104D3000CEF200010A681A4060F30A2242F0806055
:104D400040F0FD7008607047B0B544F60C05C5F63C
:104D5000020529684907296806D401F00701081AE5
:104D600018BF0120B0BD00BF21F007010843286033
:104D7000FFF78EFE044600BF55F8080C800407D4E8
:104D8000FFF786FE001BB0F57A7FF5D90120B0BD94
:104D90000020B0BD0000000080B501F061FA44F2CF
:104DA000204141F2C012C5F60201C0F601020968B5
:104DB000C1F30211515C01F01F01C84080BD000029
:104DC00080B544F2304EC5F6020E5EF8083C5EF83F
:104DD000081CC1F3051C5EF8041CBCF1000FDEF8D2
:104DE000042019D001F00101494201EAD20103F087
:104DF00003026FF35F31022A00EE101AB8EE400A88
:104E000014D0012A0ED01AB95EF8301C890611D4CC
:104E10009FED361A1CE000BF00218160C0E900113F
:104E200080BD00BF9FED2F1A12E000BF9FED2E1A2C
:104E30000EE000BF5EF8301C49F20002C0F2D03232
:104E4000C1F3C10122FA01F101EE101AB8EE411AC4
:104E5000DEF800109FED263A6FF35F2102EE101A84
:104E6000DEF80010C1F34621B8EE422A00EE032A14
:104E700000EE10CAB7EE003AB8EE400A81EE000A22
:104E800032EE031A02EE101AB8EE422A20EE010AA0
:104E900032EE031A80EE011ABCEEC11A80ED001A40
:104EA000DEF80010C1F3064101EE101AB8EE411A07
:104EB00031EE031A80EE011ABCEEC11A80ED011A20
:104EC000DEF80010C1F3066101EE101AB8EE411AC7
:104ED00031EE031A80EE010ABCEEC00A10EE101A81
:104EE000816080BD0024744A001BB74B0024744CC1
:104EF000000000390000000080B544F2384EC5F6CD
:104F0000020E5EF8103C5EF8101C5EF80C2CC1F32B
:104F1000053CDEF80410BCF1000F15D0C908D2061C
:104F200001EAE2716FF35F3100EE101A03F0030142
:104F30000229B8EE400A0DD081B95EF8381C890606
:104F400010D49FED361A1BE000218160C0E90011EA
:104F500080BD00BF9FED301A12E000BF9FED2D1AFB
:104F60000EE000BF5EF8381C49F20002C0F2D032F9
:104F7000C1F3C10122FA01F101EE101AB8EE411A93
:104F8000DEF800109FED263A6FF35F2102EE101A53
:104F9000DEF80010C1F34621B8EE422A00EE032AE3
:104FA00000EE10CAB7EE003AB8EE400A81EE000AF1
:104FB00032EE031A02EE101AB8EE422A20EE010A6F
:104FC00032EE031A80EE011ABCEEC11A80ED001A0F
:104FD000DEF80010C1F3064101EE101AB8EE411AD6
:104FE00031EE031A80EE011ABCEEC11A80ED011AEF
:104FF000DEF80010C1F3066101EE101AB8EE411A96
:1050000031EE031A80EE010ABCEEC00A10EE101A4F
:10501000816080BD0024744A001BB74B0024744C8F
:10502000000000390000000080B544F2404EC5F693
:10503000020E5EF8183C5EF8181C5EF8142CC1F3E2
:10504000055CDEF80410BCF1000F15D0C908D205CC
:1050500001EAE2716FF35F3100EE101A03F0030111
:105060000229B8EE400A0DD081B95EF8401C8906CD
:1050700010D49FED361A1BE000218160C0E90011B9
:1050800080BD00BF9FED301A12E000BF9FED2D1ACA
:105090000EE000BF5EF8401C49F20002C0F2D032C0
:1050A000C1F3C10122FA01F101EE101AB8EE411A62
:1050B000DEF800109FED263A6FF35F2102EE101A22
:1050C000DEF80010C1F34621B8EE422A00EE032AB2
:1050D00000EE10CAB7EE003AB8EE400A81EE000AC0
:1050E00032EE031A02EE101AB8EE422A20EE010A3E
:1050F00032EE031A80EE011ABCEEC11A80ED001ADE
:10510000DEF80010C1F3064101EE101AB8EE411AA4
:1051100031EE031A80EE011ABCEEC11A80ED011ABD
:10512000DEF80010C1F3066101EE101AB8EE411A64
:1051300031EE031A80EE010ABCEEC00A10EE101A1E
:10514000816080BD0024744A001BB74B0024744C5E
:10515000000000390000000010B584B0024641F69E
:10516000FF7300209B1A70EB01032DDA47F6FF73E3
:105170009B1A70EB010380F2878082F400430B439B
:1051800000F0EA8082F480330B4300F0098182F45E
:105190000022114340F0918144F20040C5F6020024
:1051A000816D01F44031B1F5003F00F03781B1F578
:1051B000803F00F02981002940F01F810068000134
:1051C00000F1018119E100BF40F2FF739B1A70EBFF
:1051D00001032DDB82F480730B4300F0818082F4A5
:1051E0008062114340F0698144F20041C5F602013A
:1051F000886DC0F34252042A00F2FF8048F200009A
:10520000C0F2BB00DFE812F0A600DC00E6005901A6
:10521000060000BFC86C0A68520700F040520868D8
:1052200002D5002A00F05081C00500F10E810FE187
:1052300082F400630B4300F07B8082F480521143C0
:1052400040F03B8144F20041C5F60201086DC0F315
:105250000232042A00F2D18048F20000C0F2BB0002
:10526000DFE812F07800AE00B8002B01060000BFA6
:10527000C86C0A68520700F04052086840F1E380A9
:10528000002A00F02181DEE082F400530B4300F09D
:10529000738082F48042114340F00F8144F2004455
:1052A000C5F60204A06DC0F30270052800F2A580C7
:1052B000DFE810F00600F400E200EE00E000140168
:1052C00000F0CEFF216A41F2C012C0F60102C1F324
:1052D0000211515C01F01F01C84004B010BD00BFB5
:1052E00044F20041C5F60201086D00F00702042AED
:1052F00000F2838048F20000C0F2BB00DFE812F049
:105300002A0060006A00DD00060000BFC86C0A6861
:10531000520700F04052086802D5002A00F0D480FD
:10532000C00540F19580B2F1805F00F0E6808FE02B
:1053300044F20041C5F60201886DC0F30262042AFE
:105340005BD848F20000C0F2BB00DFE802F003398E
:1053500043B6730008684EE044F20040C5F6020010
:10536000016D01F04051B1F1005F3DD0B1F1805FBE
:1053700040D000293CD040E044F20040C5F6020095
:10538000016DC1F30241052937D8DFE801F0032D93
:105390008F99773104B0BDE8104000F089BF00BF9D
:1053A00044F20040C5F60200C16C0068C90322D572
:1053B000000122D501A8FFF79FFD039804B010BD9E
:1053C0000868000119D501A8FFF796FD019804B0FF
:1053D00010BD00BF086880000FD501A8FFF724FEAC
:1053E000019804B010BD00BF0068000105D558E069
:1053F000006874E00068800102D4002004B010BD91
:1054000001A8FFF7DDFC57E000688000F5D501A892
:10541000FFF70AFE039804B010BD00BFC16C02681C
:10542000520701F04051026862D5002960D1C2F3F1
:10543000C1004BE0C86C0A68520700F0405208688F
:1054400001D5002A40D0C00502D5B2F1805F54D00A
:105450000868B2F1005F00F400314FF0000004BFB3
:1054600043F20060C0F26E10002908BF084604B085
:1054700010BD00BF206802E0206818E0006840F618
:105480000011C005C0F23D0101EAE07004B010BD9A
:1054900020684007B1D5206816E000BF20680001F1
:1054A000ABD501A8FFF728FD06E000BF006880002B
:1054B000A3D501A8FFF7B8FD029804B010BD00BF46
:1054C0000168490799D50068C0F3C10049F200019D
:1054D000C0F2D03121FA00F004B010BD206843F2D0
:1054E00000618003C0F26E1101EAE07004B010BDEB
:1054F000D20509D5B1F1805F06D140F60010C0F2A7
:105500003D0004B010BD00BF0068B1F1005F00F4C1
:1055100000324FF0000004BF43F20060C0F26E1092
:10552000002A08BF104604B010BD000000000000B3
:105530002DE9F0470446C07844F22C480007C5F630
:10554000020828D5606E4FEA305103292AD8DFE8D7
:1055500001F0030B131B00BFD8F8001041F4003119
:10556000C8F8001010E000BF04F10800022105F0A7
:105570001BFD064680B906E004F12800022105F073
:10558000A7FD064640B9606ED8F8241021F44011FA
:105590000843C8F8240000266078C00706D13546C5
:1055A0002FE000BF01266078C007F8D0A06D042866
:1055B0003ED83546DFE800F004140E0B0B0000BFA8
:1055C000D8F80000354640F40030C8F800002F46F7
:1055D000C5B90DE004F12800002105F079FD04E0D3
:1055E00004F10800002105F0DFFC05462F464DB907
:1055F000D8F82400A16D20F0070000250843C8F862
:1056000024003746607840073AD5D4F8A4004FEA22
:105610007050052818D8DFE800F0031D112323235C
:10562000D8F8000040F40030C8F8000018E000BFCF
:105630000125012760784007E7D421E004F1280024
:10564000002105F045FD0AE00125012660780007EC
:105650001AD44FE004F10800002105F0A5FC05462E
:105660002E461DB1607800070ED443E0D8F82C0018
:10567000D4F8A41020F4600000250843C8F82C00DA
:105680003E466078000735D5D4F8A8004FEA306070
:10569000052813D8DFE800F004180C1E1E1E00BFFA
:1056A000D8F8000040F40030C8F8000012E000BF55
:1056B00004F12800002105F00BFD0AE00125012777
:1056C000E07880071AD434E004F10800002105F0E6
:1056D0006BFC05462F461DB1E07880070ED428E00C
:1056E000D8F82C00D4F8A81020F0E060002508437A
:1056F000C8F82C003746E07880071AD5E06C4FEAEE
:105700003010032838D8DFE800F009032D0900BF66
:10571000D8F8000040F40030C8F800002E464DB91B
:10572000D8F82000E16C20F0300000250843C8F8CC
:1057300020003E466078C00639D5E06D4FEA303033
:10574000042847D8DFE800F004221C0A0A0000BF42
:10575000D8F8000040F40030C8F800002F463DBBE8
:105760001CE000BF04F10800022105F01DFC054605
:10577000002D2E46DED1D3E701250126DAE700BF52
:1057800004F12800002105F0A3FC04E004F1080066
:10579000002105F009FC05462F464DB9D8F8240034
:1057A000E16D20F4E04000250843C8F824003746A6
:1057B0006078800635D5206E4FEA3040052815D830
:1057C000DFE800F0041A0E04040400BF2E46DDB921
:1057D0001EE000BF0125012760788006EBD420E0A1
:1057E00004F12800012105F073FC0AE001250126DF
:1057F0006078400619D449E004F10800012105F061
:10580000D3FB05462E461DB1607840060DD43DE021
:10581000D8F82400216E20F4E02000250843C8F8C1
:1058200024003E466078400630D5D4F8AC004FEAFC
:10583000307005280ED8DFE800F0031307030303D8
:105840002F46ADB918E000BF04F12800012105F092
:105850003FFC0AE001250127607800061AD43CE0ED
:1058600004F10800012105F09FFB05462F461DB1FC
:10587000607800060ED430E0D8F82C00D4F8AC10D4
:1058800020F0E04000250843C8F82C003746607837
:10589000000622D5E06E58B1B0F1005F0CD0B0F137
:1058A000805F37D1D8F8000040F40030C8F800001D
:1058B0002E469DB908E000BF04F10800012105F063
:1058C00073FB05462E464DB9D8F82400E16E20F052
:1058D000405000250843C8F824003E46E078C00741
:1058E0001DD0A06C032855D8DFE800F008024A0854
:1058F000D8F8000040F40030C8F80000A9467DB98F
:10590000D8F82000A16C20F0030000250843C8F857
:10591000200004E001250126E078C007E1D1B1466E
:10592000A078400602D44F4618E000BFD8F8D40350
:1059300040F48070C8F8D403FFF7AAF8064600BF09
:10594000D8F8D403C00507D4FFF7A2F8801B642859
:10595000F6D90325032701E02F46FDB12078C007C3
:1059600000F06F80A06F4FEAF00005284ED8DFE806
:1059700000F0035347030303002D2E4654D157E094
:1059800004F10800022105F00FFB0546002DA94691
:10599000C6D1B5E701254FF00109C1E7D8F8441099
:1059A000D4F8B000414011F4407F11D0D8F8441031
:1059B000D8F8442042F48032C8F84420D8F8442073
:1059C00021F4407122F48032C8F84420C8F8441011
:1059D000B0F5807F40F0D082FFF75AF8064641F2DA
:1059E000883A0325032700BFD8F84400800700F158
:1059F000C182FFF74DF8801B5045F5D9AEE700BFD7
:105A000004F12800012105F063FB0AE001250126CD
:105A10002078800719D446E004F10800012105F040
:105A2000C3FA05462E461DB1207880070DD43AE012
:105A3000D8F82800A16F20F0380000250843C8F8E6
:105A400028003E46207880072DD5606F05280FD8A6
:105A5000DFE800F004140804040400BF2F46ADB9C9
:105A600018E000BF04F12800012105F031FB0AE035
:105A7000012501272078400719D447E004F10800E8
:105A8000012105F091FA05462F461DB12078400707
:105A90000DD43BE0D8F82800616F20F00700002506
:105AA0000843C8F828003746207840072ED5D4F898
:105AB000900005280ED8DFE800F003130703030366
:105AC0002E46ADB918E000BF04F12800012105F011
:105AD000FFFA0AE001250126207880061AD44BE05F
